:100000000C9434000C943E000C9452000C943E006E
:100010000C943E000C943E000C943E000C943E0068
:100020000C943E000C943E000C943E000C943E0058
:100030000C943E000C943E000C943E000C943E0048
:100040000C943E000C943E000C943E000C943E0038
:100050000C943E000C947C000C943E000C943E00EA
:100060000C943E000C943E0011241FBECFEFD8E04C
:10007000DEBFCDBF0E948A000C9491000C9400005A
:1000800084E08093690082E08DBB8CBB78940895F6
:1000900081E680937C008FEF80937A0083E08093E9
:1000A0007B0008951F920F920FB60F9211242F9389
:1000B0003F938F939F9380E44B9B15C08BB92FEF99
:1000C00039E698E1215030409040E1F700C000004F
:1000D0001BB82FEF39E698E1215030409040E1F70E
:1000E00000C00000E9CF9F918F913F912F910F9019
:1000F0000FBE0F901F9018951F920F920FB60F9280
:1001000011248F9380E48BB98F910F900FBE0F90C5
:100110001F90189580E48AB917B88BB90E944000E7
:06012000FFCFF894FFCFB1
:00000001FF
